:100000000C9462000C94DA080C94B3080C948A00E7
:100010000C948A000C948A000C948A000C948A0038
:100020000C948A000C948A000C948A000C948A0028
:100030000C948A000C948A000C948A000C948A0018
:100040000C9469080C948A000C9427090C940109FB
:100050000C948A000C948A000C948A000C948A00F8
:100060000C948A000C948A000000000023002600F3
:10007000290000000008000201000003040700003E
:1000800000000000000000000000250028002B00F8
:1000900000000000240027002A00040404040404D3
:1000A0000404020202020202030303030303010227
:1000B00004081020408001020408102001020408F6
:1000C0001020590911241FBECFEFD8E0DEBFCDBFED
:1000D00011E0A0E0B1E0EAEBF9E102C005900D9279
:1000E000A03CB107D9F722E0A0ECB1E001C01D921D
:1000F000AC3EB207E1F710E0C2E6D0E004C02197C1
:10010000FE010E94C10CC136D107C9F70E94B70990
:100110000C94DB0C0C9400003FB7F8948091220201
:1001200090912302A0912402B091250226B5A89BAC
:1001300005C02F3F19F00196A11DB11D3FBFBA2F79
:10014000A92F982F8827BC01CD01620F711D811D39
:10015000911D42E0660F771F881F991F4A95D1F7BE
:1001600008952FB7F89460911E0270911F0280913C
:100170002002909121022FBF08954F925F926F92BB
:100180007F929F92AF92BF92CF92DF92EF92FF92B7
:100190000F931F93CF93DF9300D01F92CDB7DEB79D
:1001A000F090CF028091D2029091D302A091D4021C
:1001B000B091D502892B8A2B8B2BD9F00E948C0011
:1001C00000912E0210912F022091300230913102C5
:1001D000601B710B820B930B0091D2021091D30222
:1001E0002091D4023091D5026017710782079307DE
:1001F000C8F20E948C0060932E0270932F028093AD
:10020000300290933102E091DA02F091DB023097F4
:1002100059F04091D6025091D7026091D802709166
:10022000D9028F2D0995F82E00912C0210912D02E4
:100230004F2C512C712C612C0115110509F45EC055
:10024000D8011C96EC901C978091D0029091D1021D
:100250008436910510F41C961C92D801ED91FC9106
:10026000A280B38019821A821B82FF2089F1F801D3
:100270003696D12CC12C2191222319F192809920FC
:1002800001F130E050E040E02F5F3F4F4F4F5F4FB4
:10029000C301B2010E94550C9B01AC01892D90E075
:1002A000B0E0A0E0BC01CD016F5F7F4F8F4F9F4F4B
:1002B0000E94550CA1E0B0E0AC0FBD1FAC0DBD1D00
:1002C0008C93BFEFCB1ADB0A83E0C816D10499F6F2
:1002D000D8011D964D915C911E9712966D917C915F
:1002E0009E012F5F3F4FC801F5010995D8011C966B
:1002F000EC921C9714960D911C919ECF80912A022E
:1003000090912B028C010F5F1F4F10932B020093D3
:100310002A0249978CF10E94B1009B01AC0188EE42
:1003200093E0089FB001099F700D189F700D112474
:10033000072E000C880B990BC0902602D090270244
:10034000E0902802F09029022C193D094E095F091E
:100350000E94790C3093D1022093D00210922B028C
:1003600010922A020E94B100609326027093270225
:1003700080932802909329020F900F900F90DF91A5
:10038000CF911F910F91FF90EF90DF90CF90BF9092
:10039000AF909F907F906F905F904F9008954F9295
:1003A0005F926F927F928F929F92AF92BF92CF9205
:1003B000DF92EF92FF922B013C010E94B1006B0192
:1003C0007C010E948C004B015C010E948C0068192A
:1003D00079098A099B09683E734081059105A8F354
:1003E0000E94BD000E94B1006C197D098E099F0911
:1003F000641575058605970520F3FF90EF90DF9053
:10040000CF90BF90AF909F908F907F906F905F90B4
:100410004F9008950895AF92BF92CF92DF92EF92DE
:10042000FF920F931F93CF93DF936C017B018B019E
:10043000040F151FEB015E01AE18BF08C017D107EE
:1004400059F06991D601ED91FC910190F081E02D78
:10045000C6010995892B79F7C501DF91CF911F91CD
:100460000F91FF90EF90DF90CF90BF90AF900895E5
:1004700080E991E00895FC01538D448D252F30E0F3
:10048000842F90E0821B930B541710F0CF960895A1
:1004900001970895FC01918D828D981761F0A28DCE
:1004A000AE0FBF2FB11D5D968C91928D9F5F9F7394
:1004B000928F90E008958FEF9FEF0895FC01918D4A
:1004C000828D981731F0828DE80FF11D858D90E0B7
:1004D00008958FEF9FEF0895FC01918D228D892F54
:1004E00090E0805C9F4F821B91098F73992708953C
:1004F00082E392E00E946C0221E0892B09F420E063
:10050000822F089580E090E0892B29F00E947802E4
:1005100081110C9400000895FC01A48DA80FB92F3F
:10052000B11DA35ABF4F2C91848D90E001968F731B
:100530009927848FA689B7892C93A089B1898C913A
:10054000837080648C93938D848D981306C0028889
:10055000F389E02D80818F7D80830895EF92FF9253
:100560000F931F93CF93DF93EC0181E0888F9B8DD6
:100570008C8D98131AC0E889F989808185FF15C090
:100580009FB7F894EE89FF896083E889F9898081B3
:100590008370806480839FBF81E090E0DF91CF9182
:1005A0001F910F91FF90EF900895F62E0B8D10E0A4
:1005B0000F5F1F4F0F731127E02E8C8D8E110CC013
:1005C0000FB607FCFACFE889F989808185FFF5CF5E
:1005D000CE010E948C02F1CFEB8DEC0FFD2FF11DAF
:1005E000E35AFF4FF0829FB7F8940B8FEA89FB899B
:1005F00080818062CFCFCF93DF93EC01888D8823F9
:10060000B9F0AA89BB89E889F9898C9185FD03C075
:10061000808186FD0DC00FB607FCF7CF8C9185FF5A
:10062000F2CF808185FFEDCFCE010E948C02E9CF11
:10063000DF91CF910895282F649FC0014095249F9A
:10064000800D911D1124820F911D860F911D892F00
:100650000895FF920F931F93CF93DF93EC018B01CB
:10066000F42E442359F0FB016081FFEF4F130DC0BE
:100670006883F8018181898382818A83CE01DF9139
:10068000CF911F910F91FF90089588810E941B03C5
:1006900088834F2DF801618189810E941B03898322
:1006A0004F2DF80162818A810E941B03E6CF0F93D0
:1006B0001F93CF93DF932091C2012F5F322F3770AA
:1006C0003093C20120FF2BC020E831FD206434703C
:1006D00009F02062205FFC01EC01239600E011E0AC
:1006E0006485662329F070E0C8010E94650C6F5F85
:1006F0006187322F369F030E30E0311D11243111F6
:1007000010C01682662311F0615061873196EC1794
:10071000FD0731F7DF91CF911F910F91089520E0F0
:10072000D4CF31503683EECF4F925F926F927F924B
:100730008F92AF92BF92CF92DF92EF920F931F935F
:10074000CF93DF933C01EB010E948C00F3012785DE
:100750003089621B730B6A307105B0F3F894E8813D
:10076000F9817BB170646BB16F7B6BB9CA848F8187
:100770002C2D281B822F2F83BF844A805B801D85F0
:100780000C85DE841F5F0F5FD3949E813885A9841A
:10079000EB844181D20120E0C32F522F322F3181CF
:1007A000442788943111380F08F43FEF81958894DD
:1007B00010FD430F4795889411FD430F479588948A
:1007C00012FD430F4795889413FD430F4795889476
:1007D00014FD430F4795889415FD430F4795889462
:1007E00016FD430F4795889417FD430F479588944E
:1007F000232F1111242F8C0D422F002C7BB900C008
:1008000047FF6BB930812227889400C000C0002CBC
:100810006BB93111390F00C0002C7BB900C046FF05
:100820006BB908F43FEF9195889400C000C0002C8C
:100830006BB900FD230F00C0002C7BB900C045FF41
:100840006BB92795889401FD230F00C000C0002CD0
:100850006BB92795889400C0002C7BB900C044FF79
:100860006BB902FD230F2795889400C000C0002CAF
:100870006BB903FD230F00C0002C7BB900C043FF00
:100880006BB92795889404FD230F00C000C0002C8D
:100890006BB92795889400C0002C7BB900C042FF3B
:1008A0006BB905FD230F2795889400C000C0002C6C
:1008B0006BB906FD230F00C0002C7BB900C041FFBF
:1008C0006BB92795889407FD230F00C000C0002C4A
:1008D0006BB92795889400C0002C7BB900C040FFFD
:1008E0006BB9432F0111422F9A0D00C000C0002C9C
:1008F0006BB900C000C0002C7BB900C047FF6BB9CA
:1009000032812227889400C000C0002C6BB93111BD
:100910003C0F00C0002C7BB900C046FF6BB908F447
:100920003FEFEB0DF11D00C000C0002C6BB9D0FCF7
:10093000230F00C0002C7BB900C045FF6BB9279581
:100940008894D1FC230F00C000C0002C6BB9279500
:10095000889400C0002C7BB900C044FF6BB9D2FC66
:10096000230F2795889400C000C0002C6BB9D3FCDE
:10097000230F00C0002C7BB900C043FF6BB9279543
:100980008894D4FC230F00C000C0002C6BB92795BD
:10099000889400C0002C7BB900C042FF6BB9D5FC25
:1009A000230F2795889400C000C0002C6BB9D6FC9B
:1009B000230F00C0002C7BB900C041FF6BB9279505
:1009C0008894D7FC230F00C000C0002C6BB927957A
:1009D000889400C0002C7BB900C040FF6BB9432F46
:1009E000D110422FC19500C000C0002C6BB9CE0DB4
:1009F00000C000C07BB900C047FF6BB9318122271E
:100A0000889400C000C0002C6BB93111380F00C0B1
:100A1000002C7BB900C046FF6BB908F43FEF81950D
:100A2000889400C000C0002C6BB910FD230F00C0DB
:100A3000002C7BB900C045FF6BB92795889411FD48
:100A4000230F00C000C0002C6BB92795889400C00C
:100A5000002C7BB900C044FF6BB912FD230F279512
:100A6000889400C000C0002C6BB913FD230F00C098
:100A7000002C7BB900C043FF6BB92795889414FD07
:100A8000230F00C000C0002C6BB92795889400C0CC
:100A9000002C7BB900C042FF6BB915FD230F2795D1
:100AA000889400C000C0002C6BB916FD230F00C055
:100AB000002C7BB900C041FF6BB92795889417FDC6
:100AC000230F00C000C0002C6BB92795889400C08C
:100AD000002C7BB900C040FF6BB9432F1111422F8E
:100AE0008C0D00C000C0002C6BB9119709F086CEA8
:100AF00020EE31E0D2010E949B0CDC01CB01F4E03E
:100B0000B695A79597958795FA95D1F730E020E0AF
:100B1000B901EAE94E9E040C611D5E9E600D711DD7
:100B20001124650D711D860F971FA11DB11D893EF2
:100B300043E09407A105B10508F434C0885E9340F2
:100B4000A109B10942E0B695A795979587954A9571
:100B5000D1F747E0849F080E211D949F200D311D81
:100B60001124290F311D6091C10170E0860F971F7C
:100B7000820F931F40911E0250911F02609120022C
:100B800070912102292F3327420F531F611D711DC0
:100B900040931E0250931F02609320027093210223
:100BA0008093C10178940E948C00F301708B678759
:100BB000DF91CF911F910F91EF90DF90CF90BF9079
:100BC000AF908F907F906F905F904F900895569A5E
:100BD00008950F931F93CF93DF93CDB7DEB762973E
:100BE0000FB6F894DEBF0FBECDBF8C01F901DC015A
:100BF0001C968C917A8369835C834B835E834D83DF
:100C000090819D8791819E8792819F878130F1F4A9
:100C1000CE0101960E94570383E0888B1A8A198AB5
:100C2000D801ED91FC910484F585E02DBE016F5F44
:100C30007F4FC801099562960FB6F894DEBF0FBECC
:100C4000CDBFDF91CF911F910F9108951C861B8618
:100C50001A86198618861F82DFCF0F931F93CF93B2
:100C6000DF93CDB7DEB762970FB6F894DEBF0FBE45
:100C7000CDBF8C01F901DC011C968C917A836983CC
:100C80005C834B835E834D8390819D8791819E879A
:100C900092819F878130E9F4CE0101960E9457032B
:100CA000188A1A8A198AD801ED91FC910484F58575
:100CB000E02DBE016F5F7F4FC801099562960FB6A8
:100CC000F894DEBF0FBECDBFDF91CF911F910F9182
:100CD00008951C861B861A86198618861F82E0CF07
:100CE0008F929F92AF92BF92CF92DF92EF92FF923C
:100CF0000F931F93CF93DF9300D000D000D0CDB7D8
:100D0000DEB7962EE72EF82E23E1C22E22E0D22E59
:100D10008824839480911B0290911C02019709F40E
:100D200094C080911B0290911C02019709F48DC020
:100D30008091C001811116C003EE11E080911B0269
:100D400090911C02019761F0F801F082E182928299
:100D50000E94BD000D5F1F4FF2E003311F0771F7C6
:100D60008092C00194E1A92EB12C80911B02909138
:100D70001C02019761F103EE11E019821A821B82B5
:100D8000F80180818C8381818D8382818E834AE00A
:100D9000BE016F5F7F4FCE0104960E9429038C81B4
:100DA000F80180838D8181838E8182830D5F1F4F47
:100DB000C016D10611F768E270E080E090E00E9472
:100DC000CF010E94BD00F1E0AF1AB10871F684E1D5
:100DD000A82EB12C80911B0290911C02019709F45E
:100DE00099CF03EE11E080911B0290911C020197B4
:100DF000F9F0F982EA829B82F80180818C838181FB
:100E00008D8382818E834AE0BE016F5F7F4FCE016A
:100E100004960E9429038C81F80180838D8181834F
:100E20008E8182830D5F1F4FF2E003311F07D9F6D9
:100E300068E270E080E090E00E94CF010E94BD0077
:100E400081E0A81AB10831F665CF26960FB6F8945E
:100E5000DEBF0FBECDBFDF91CF911F910F91FF90ED
:100E6000EF90DF90CF90BF90AF909F908F900895BC
:100E70008F929F92AF92BF92CF92DF92EF92FF92AA
:100E80000F931F93CF93DF9300D000D000D0CDB746
:100E9000DEB7B62EA72E982E892EC72ED82E8BE021
:100EA000E82EF12C80911B0290911C02019721F0F9
:100EB00031E0E31AF108C9F46B2D7A2D892D982DB4
:100EC0000E94700626960FB6F894DEBF0FBECDBF07
:100ED000DF91CF911F910F91FF90EF90DF90CF9016
:100EE000BF90AF909F908F90089503EE11E0809196
:100EF0001B0290911C020197A9F2D982CA82BB827F
:100F0000F80180818C8381818D8382818E8340E989
:100F1000BE016F5F7F4FCE0104960E9429038C8132
:100F2000F80180838D8181838E81828362E370E00A
:100F300080E090E00E94CF01E3EEF1E080911B029F
:100F400090911C020197C9F0208130EF239F020E7F
:100F500020E0211D20832181239F020E20E0211DFE
:100F600021832281239F020E20E0211D2283112450
:100F7000339682E0E331F80709F70E94BD000D5F68
:100F80001F4FE2E003311E0709F0B1CF8BCFE4E73A
:100F9000F0E08491E0EBF0E09491ECE9F0E0E49192
:100FA000EE2309F43BC0882339F0833001F1A8F423
:100FB000813019F1823029F1F0E0EE0FFF1FE8597E
:100FC000FF4FA591B491EC91E92341F181E090E0CC
:100FD00090931C0280931B0208958730A9F08830FB
:100FE000C9F0843049F7809180008F7D03C08091E3
:100FF00080008F7780938000DFCF84B58F7784BDAA
:10100000DBCF84B58F7DFBCF8091B0008F7780934D
:10101000B000D2CF8091B0008F7DF9CF10921C022A
:1010200010921B021092DE011092DF011092E0017B
:101030001092E1011092E2011092C001089590E037
:1010400080E00895FC01858596850895CF93DF9310
:1010500000D000D000D0CDB7DEB7AB011C821D821E
:101060001E82DC01ED91FC910190F081E02D19824E
:101070001A821B829E012F5F3F4FBE016C5F7F4F24
:10108000099526960FB6F894DEBF0FBECDBFDF914F
:10109000CF910895CF93DF93FC0101900020E9F7F1
:1010A0003197AF01481B590BBC0182E392E00E94CB
:1010B0000B02EC0142E050E068E371E082E392E071
:1010C0000E940B028C0F9D1FDF91CF9108950E940B
:1010D000D60C1F920F920FB60F9211242F933F93AD
:1010E0008F939F93AF93BF9380911E0290911F02A5
:1010F000A0912002B091210230911D0223E0230F24
:101100002D3758F50196A11DB11D20931D02809326
:101110001E0290931F02A0932002B093210280919F
:10112000220290912302A0912402B09125020196FF
:10113000A11DB11D8093220290932302A09324024B
:10114000B0932502BF91AF919F918F913F912F91C5
:101150000F900FBE0F901F90189526E8230F029650
:10116000A11DB11DD2CF1F920F920FB60F92112465
:101170002F933F934F935F936F937F938F939F939F
:10118000AF93BF93EF93FF93E0910201F0910301BE
:101190000995FF91EF91BF91AF919F918F917F91B1
:1011A0006F915F914F913F912F910F900FBE0F90D4
:1011B0001F9018951F920F920FB60F9211242F9324
:1011C0003F934F935F936F937F938F939F93AF93CF
:1011D000BF93EF93FF93E0910001F0910101099516
:1011E000FF91EF91BF91AF919F918F917F916F91FF
:1011F0005F914F913F912F910F900FBE0F901F90D5
:1012000018951F920F920FB60F9211242F933F93B0
:101210004F935F936F937F938F939F93AF93BF93FE
:10122000EF93FF9382E392E00E948C02FF91EF9193
:10123000BF91AF919F918F917F916F915F914F91EE
:101240003F912F910F900FBE0F901F9018951F92F6
:101250000F920FB60F9211242F938F939F93EF93BA
:10126000FF93E0914202F09143028081E0914802B5
:10127000F091490282FD1BC0908180914B028F5FEB
:101280008F7320914C02821741F0E0914B02F0E005
:10129000EE5CFD4F958F80934B02FF91EF919F91F4
:1012A0008F912F910F900FBE0F901F9018958081F6
:1012B000F4CFE2E3F2E01382128288EE93E0A0E042
:1012C000B0E084839583A683B7838AE291E091831B
:1012D000808385EC90E09587848784EC90E0978705
:1012E000868780EC90E0918B808B81EC90E0938BF3
:1012F000828B82EC90E0958B848B86EC90E0978BD0
:10130000868B118E128E138E148EEFECF2E08FEF1F
:10131000808312821182148613868FEF9FEFDC0187
:1013200087839087A187B287ECEDF2E08FEF90E0A2
:10133000ACE4B0E080839183A283B38380ED9FEF20
:10134000A0E0B0E084839583A683B78380E09CE32C
:10135000AFEFB0E080879187A287B38784E490E005
:10136000AFEFB0E084879587A687B7870895CF93BE
:10137000DF9300D000D000D0CDB7DEB7789484B52D
:10138000826084BD84B5816084BD85B5826085BD81
:1013900085B5816085BD80916E00816080936E000F
:1013A0001092810080918100826080938100809101
:1013B00081008160809381008091800081608093B2
:1013C00080008091B10084608093B1008091B00072
:1013D00081608093B00080917A00846080937A006D
:1013E00080917A00826080937A0080917A00816097
:1013F00080937A0080917A00806880937A001092BE
:10140000C1008091D601811145C01092C80110928F
:10141000C7018FEF8093CB018093CC018093CD01E6
:101420008093CE018093CF018093D00181E080939F
:10143000D1011092D3011092D2011092CA011092E0
:10144000C90180912C0290912D02892B31F485ECF9
:1014500091E090932D0280932C02E091C301F091D2
:10146000C401309721F085EC91E09583848385EC6D
:1014700091E09093C4018093C3011092D501109222
:10148000D40188E191E09093C6018093C50181E089
:101490008093D601569A83EE91E09093C801809391
:1014A000C70180E190E09093D3018093D2018091B5
:1014B000D2029091D302A091D402B091D502843C83
:1014C00029E09207A105B10520F484EC99E0A0E0A1
:1014D000B0E08093D2029093D302A093D402B09351
:1014E000D5028FEF8093CF02E4EBF0E02491E0EAA5
:1014F000F0E08491882399F090E0880F991FFC0117
:10150000E057FF4FA591B491FC01EA57FF4F859139
:1015100094918FB7F894EC91E22BEC938FBFE0EBB2
:10152000F0E02491ECE9F0E084918823C9F090E0A8
:10153000880F991FFC01E057FF4F45915491FC0122
:10154000EA57FF4FA591B4919FB7F894FA018081B3
:101550002095822380838C91E22FE823EC939FBF18
:1015600087EC97E0909301018093000180916900DE
:101570008C7F816080936900E89AE0914202F0914B
:10158000430282E08083E0913E02F0913F021082AC
:10159000E0914002F091410280E1808310924A0282
:1015A000E0914602F091470286E08083E091440298
:1015B000F0914502808180618083E0914402F09146
:1015C0004502808188608083E0914402F091450269
:1015D000808180688083E0914402F091450280819F
:1015E0008F7D80838BE391E00E944A0833E1C32E14
:1015F00032E0D32E40E0A42E40E0B42E99249A94F9
:101600005CE4852E7724739480911B0290911C02D8
:101610008130910509F0A4C090931A0280931902B9
:1016200003EE11E030911302909114022091150203
:101630002C839D833E83F8018081898381818A8305
:1016400082818B8344EFBE016C5F7F4FCE01019698
:101650000E9429038981F80180838A8181838B819B
:1016600082830E94BD0061E070E080E090E00E9413
:10167000CF010D5F1F4FC016D106A1F68091E20188
:10168000811112C080911B0290911C02019761F49C
:101690000E94B1006093DE017093DF018093E0014E
:1016A0009093E1017092E20180911B0290911C02E3
:1016B000019709F07BC00E94B1002091DE013091BA
:1016C000DF014091E0015091E101621B730B840B3B
:1016D000950B693B7B408105910508F467C08AE45E
:1016E00091E00E944A081092E201109218021092B2
:1016F000170210921A021092190280911B02909107
:101700001C02019709F052C023EEE22E21E0F22ED6
:101710008C821D829E82F7018081898381818A83E8
:1017200082818B8344EFBE016C5F7F4FCE010196B7
:101730000E9429038981F70180838A8181838B81BB
:1017400082830E94BD0061E070E080E090E00E9432
:10175000CF01F3E0EF0EF11CE016F106C9F6CDCF94
:101760000091190210911A0201301105A1F4809123
:101770001702909118028330910524F501969093F9
:1017800018028093170283E591E00E944A081092A4
:101790001A0210921902809117029091180281305A
:1017A000910509F450C0BCF4892B41F1A114B10496
:1017B00009F42ACF0E947802882309F423CF0E94DB
:1017C000000020CF8AE691E00E944A081093180298
:1017D00000931702DCCF8230910509F459C00397BA
:1017E00029F781EB91E00E944A088091E0029091F4
:1017F000E102A091E202B091E30231C088E891E0F9
:101800000E944A08E0911702F0911802EE0FFF1FA4
:10181000EE0FFF1FE452FD4F608171818281938141
:101820000E9470068091E0029091E102A091E20294
:10183000B091E3028093130290931402A0931502D7
:10184000B0931602B3CF85E991E00E944A088091D7
:10185000E4029091E502A091E602B091E702809344
:10186000130290931402A0931502B0931602E09114
:101870001702F0911802EE0FFF1FEE0FFF1FE45248
:10188000FD4F60817181828193810E9438078ECFE4
:1018900083EA91E00E944A088091E8029091E9026F
:1018A000A091EA02B091EB02DACFDB018F939F9314
:1018B0000E94A20CBF91AF91A29F800D911DA39F8A
:1018C000900DB29F900D1124089597FB072E16F4EA
:1018D000009407D077FD09D00E94AD0C07FC05D01D
:1018E0003EF4909581959F4F0895709561957F4F37
:1018F0000895A1E21A2EAA1BBB1BFD010DC0AA1F51
:10190000BB1FEE1FFF1FA217B307E407F50720F068
:10191000A21BB30BE40BF50B661F771F881F991FE3
:101920001A9469F760957095809590959B01AC012C
:10193000BD01CF0108950E94C70CB7FF0895821B17
:10194000930B08950E94C70CA59F900DB49F900D16
:10195000A49F800D911D11240895AA1BBB1B51E16A
:1019600007C0AA1FBB1FA617B70710F0A61BB70B0F
:10197000881F991F5A95A9F780959095BC01CD01B4
:101980000895EE0FFF1F0590F491E02D0994A29F9A
:10199000B001B39FC001A39F700D811D1124911D43
:1019A000B29F700D811D1124911D089581E090E07A
:0A19B000F8940C94DB0CF894FFCFC0
:1019BA000A020A020000000067086708670826088A
:1019CA0022081F08000000002D06E905E705260881
:1019DA0022083802940300000000AE020B023B0208
:1019EA00FB026C024A025E020D0A005374617274B1
:1019FA00696E672075702E2E2E0053687574646F99
:101A0A00776E004D6F76656420666F7277617264D7
:101A1A00206F6E65206D6F6465004D6F76696E6725
:101A2A00206261636B20746F207374617274206F1B
:101A3A0066206D6F64657300436F6C642053746134
:101A4A006E6462790048656174696E6720746F20FC
:101A5A0034300048656174696E6720746F203530D0
:101A6A000048656174696E6720746F203630000023
:00000001FF
